:100000000C943E000C946C000C945B000C945B0010
:100010000C945B000C945B000C945B000C945B00F4
:100020000C945B000C945B000C945B000C945B00E4
:100030000C945B000C945D000C945B000C945B00D2
:100040000C945B000C945B000C945B000C945B00C4
:100050000C945B000C945B000C945B000C945B00B4
:100060000C945B000C945B000C945B000C945B00A4
:100070000C945B000C945B000C945B0011241FBE7D
:10008000CFEFD8E0DEBFCDBF11E0A0E0B1E0E6E009
:10009000F6E002C005900D92A230B107D9F721E039
:1000A000A2E0B1E001C01D92AA30B207E1F70E94C0
:1000B000B3000C9401030C9400001F920F920FB632
:1000C0000F9211248F9381E0809309018F910F90FB
:1000D0000FBE0F901F9018951F920F920FB60F92A0
:1000E00011248F939F934A9B0EC08FE19EE401974A
:1000F000F1F700C000004A9B04C081E08093080132
:1001000002C010920801E09A9F918F910F900FBE4C
:100110000F901F901895109209011092850010926F
:1001200084009C01220F331F820F931F909389003C
:1001300080938800109280008DE08093810010925F
:10014000820082E080936F000895F8948FEF81B968
:1001500084B987B91AB8E89AE9E6F0E0808181604D
:1001600080837894089512E082E0F82E01E00E94E6
:10017000A500109204011092050110920601109240
:10018000070110920801809108018823E1F388E2B9
:100190009AE00E948B00809109018823E1F360912D
:1001A000040170910501809106019091070120E002
:1001B00030E040E251E40E947F01609304017093BB
:1001C00005018093060190930701609104017091ED
:1001D0000501809106019091070120E030E040EF99
:1001E00052E40E94EB01882311F04A99D0CF85E0B8
:1001F00090E012B92FE738E341E021503040404011
:10020000E1F700C0000012B82FE738E341E02150C9
:1002100030404040E1F700C00000019751F78FEFF8
:1002200093ED20E3815090402040E1F700C00000B2
:100230006091040170910501809106019091070180
:1002400020E030E040E05FE30E9494020E94F00171
:10025000EB0160910401709105018091060190917C
:10026000070120E030E040EF51E40E94EB018111F2
:100270000AC0F2B83FEF41E18AE731504040804088
:10028000E1F700C0000080E090E08C179D0751F17D
:1002900002B92FE73AE146E0215030404040E1F713
:1002A00000C0000012B82FE73AE146E0215030408C
:1002B0004040E1F700C0000002B92FE73AE146E014
:1002C000215030404040E1F700C0000012B82FE755
:1002D0003AE146E0215030404040E1F700C00000E4
:1002E0000196D3CF12B98FEF99E628E18150904063
:1002F0002040E1F700C0000012B839CF5058BB27AA
:10030000AA270E9496010C945A020E944C0238F0CF
:100310000E94530220F039F49F3F19F426F40C9404
:1003200049020EF4E095E7FB0C944302E92F0E948A
:100330006B0258F3BA17620773078407950720F01A
:1003400079F4A6F50C948D020EF4E0950B2EBA2FDD
:10035000A02D0B01B90190010C01CA01A0011124CB
:10036000FF27591B99F0593F50F4503E68F11A1677
:10037000F040A22F232F342F4427585FF3CF469508
:1003800037952795A795F0405395C9F77EF41F162A
:10039000BA0B620B730B840BBAF09150A1F0FF0FF4
:1003A000BB1F661F771F881FC2F70EC0BA0F621FE0
:1003B000731F841F48F4879577956795B795F795D0
:1003C0009E3F08F0B0CF9395880F08F09927EE0F65
:1003D0009795879508950E941F0208F481E008957B
:1003E0000E94730288F09F5798F0B92F9927B75150
:1003F000B0F0E1F0660F771F881F991F1AF0BA95C9
:10040000C9F714C0B13091F00E948D02B1E0089597
:100410000C948D02672F782F8827B85F39F0B93F89
:10042000CCF3869577956795B395D9F73EF490957B
:100430008095709561957F4F8F4F9F4F0895990FCD
:100440000008550FAA0BE0E8FEEF16161706E8079E
:10045000F907C0F012161306E407F50798F0621BBF
:10046000730B840B950B39F40A2661F0232B242B94
:10047000252B21F408950A2609F4A140A6958FEFB3
:10048000811D811D089597F99F6780E870E060E005
:1004900008959FEF80EC089500240A94161617061D
:1004A00018060906089500240A9412161306140665
:1004B00005060895092E0394000C11F4882352F0C8
:1004C000BB0F40F4BF2B11F460FF04C06F5F7F4F80
:1004D0008F4F9F4F089557FD9058440F551F59F067
:1004E0005F3F71F04795880F97FB991F61F09F3F21
:1004F00079F087950895121613061406551FF2CF4A
:100500004695F1DF08C0161617061806991FF1CF99
:1005100086957105610508940895E894BB276627C0
:100520007727CB0197F908950E94A7020C945A02ED
:100530000E944C0238F00E94530220F0952311F0E3
:100540000C9443020C94490211240C948E020E94D4
:100550006B0270F3959FC1F3950F50E0551F629F9A
:10056000F001729FBB27F00DB11D639FAA27F00D0C
:10057000B11DAA1F649F6627B00DA11D661F829F33
:100580002227B00DA11D621F739FB00DA11D621F18
:10059000839FA00D611D221F749F3327A00D611D35
:1005A000231F849F600D211D822F762F6A2F112417
:1005B0009F5750409AF0F1F088234AF0EE0FFF1F4A
:1005C000BB1F661F771F881F91505040A9F79E3FA1
:1005D000510580F00C9443020C948E025F3FE4F3CB
:1005E000983ED4F3869577956795B795F795E795F7
:1005F0009F5FC1F7FE2B880F911D9695879597F900
:060600000895F894FFCFFD
:020606000100F1
:00000001FF
