:100000000C943E000C9453000C9453000C94530039
:100010000C9453000C9453000C9453000C94530014
:100020000C9453000C9453000C9453000C94530004
:100030000C9453000C9453000C9453000C945300F4
:100040000C9453000C9453000C9453000C945300E4
:100050000C9453000C9453000C9453000C945300D4
:100060000C9453000C9453000C9453000C945300C4
:100070000C9453000C9453000C94530011241FBE95
:10008000CFEFD8E0DEBFCDBF11E0A0E0B1E0EAE500
:10009000F1E002C005900D92A631B107D9F70E9498
:1000A0006C000C94AB000C9400001092C5008FEC17
:1000B0008093C40081E08093C00088E18093C100F8
:1000C00086E08093C20008959091C00095FD03C022
:1000D0008093C600F9CF0895CF92DF92EF92FF92FE
:1000E0001F93CF93DF93CDB7DEB765970FB6F89424
:1000F000DEBF0FBECDBF8FEF81B984B987B91AB803
:1001000085E1E0E0F1E0DE01119601900D928A9523
:10011000E1F714E66E0185E1C80ED11CFE013196AF
:100120007F01F70181917F010E946400EC14FD04BE
:10013000C1F7115099F780E090E065960FB6F894FA
:10014000DEBF0FBECDBFDF91CF911F91FF90EF902B
:0A015000DF90CF900895F894FFCFE0
:10015A004C6520726F626F7420656E20494E46317D
:06016A003930300A0000EC
:00000001FF
