:100000000C943E000C945B000C945B000C945B0021
:100010000C945B000C945B000C945B000C945B00F4
:100020000C945B000C945B000C945B000C945B00E4
:100030000C945B000C945B000C945B000C945B00D4
:100040000C945B000C945B000C945B000C945B00C4
:100050000C945B000C945B000C945B000C945B00B4
:100060000C945B000C945B000C945B000C945B00A4
:100070000C945B000C945B000C945B0011241FBE7D
:10008000CFEFD8E0DEBFCDBF11E0A0E0B1E0E8E205
:10009000F5E002C005900D92A033B107D9F721E039
:1000A000A0E3B1E001C01D92A133B207E1F70E94C5
:1000B00006020C9492020C940000089580EA80934A
:1000C00000011092B90080E28093B800089520E802
:1000D000FC0120830C945E00982F9370891305C057
:1000E000880F806A8093000108958FEF089594EA45
:1000F00024E89093BC008091BC0087FFFCCF8091E6
:1001000000018093BB002093BC008091BC0087FF5E
:10011000FCCF8091B900883161F784EA8093BC00FC
:100120008091BC0087FFFCCF809100018093BB00D1
:1001300084E88093BC008091BC0087FFFCCF709363
:10014000BB0084E88093BC008091BC0087FFFCCF9B
:100150006093BB0084E88093BC008091BC0087FF63
:10016000FCCF8091BC0087FFFCCF84EA8093BC0069
:100170008091BC0087FFFCCF809100018F5F80934E
:10018000BB0084E88093BC008091BC0087FFFCCF5B
:1001900084E88093BC008091BC0087FFFCCF8091F5
:1001A000BB00FA01808384E98093BC0080E008955D
:1001B00094EA34E89093BC008091BC0087FFFCCFA8
:1001C000809100018093BB003093BC008091BC0003
:1001D00087FFFCCF8091B900883161F784EA809372
:1001E000BC008091BC0087FFFCCF80910001809310
:1001F000BB0084E88093BC008091BC0087FFFCCFEB
:100200007093BB0084E88093BC008091BC0087FFA2
:10021000FCCF6093BB0084E88093BC008091BC005D
:1002200087FFFCCF84EA8093BC008091BC0087FFED
:10023000FCCF809100018F5F8093BB0084E88093A6
:10024000BC008091BC0087FFFCCFFA0184EC222324
:1002500071F0213009F484E88093BC009091BC00D7
:1002600097FFFCCF9091BB0091932150F0CF84E990
:100270008093BC0080E0089594EA24E89093BC0049
:100280008091BC0087FFFCCF809100018093BB0070
:100290002093BC008091BC0087FFFCCF8091B90007
:1002A000883161F784EA8093BC008091BC0087FFAD
:1002B000FCCF809100018093BB0084E88093BC0058
:1002C0008091BC0087FFFCCF7093BB0084E88093D3
:1002D000BC008091BC0087FFFCCF6093BB0084E82A
:1002E0008093BC008091BC0087FFFCCF4093BB0093
:1002F00084E88093BC008091BC0087FFFCCF84E938
:100300008093BC0080E00895FB01E20FF11DDC0149
:100310002C9130E021503109262B372BE217F307BF
:1003200010F0F90131968E2F861B24EA34E82093D1
:10033000BC009091BC0097FFFCCF9091000190937E
:10034000BB003093BC009091BC0097FFFCCF909114
:10035000B900983161F794EA9093BC009091BC0089
:1003600097FFFCCF909100019093BB0094E890938D
:10037000BC009091BC0097FFFCCF7093BB0094E849
:100380009093BC009091BC0097FFFCCF6093BB00A2
:1003900094E89093BC009091BC0097FFFCCFFA01C9
:1003A000982F24E8992359F031913093BB00209382
:1003B000BC003091BC0037FFFCCF9150F3CF94E9E3
:1003C0009093BC000895CF92DF92EF92FF921F931B
:1003D000CF93DF936C017A01122FEB01212FA7013C
:1003E000BE01C6010E948401282F30E0C20FD31F36
:1003F000181BE20EF31E1111F1CF80E0DF91CF91B7
:100400001F91FF90EF90DF90CF900895AF92BF9231
:10041000CF92DF92EF92FF920F931F93CF93DF93D0
:10042000CDB7DEB7AF970FB6F894DEBF0FBECDBF26
:10043000CE018F960E9467008FEF81B984B987B98A
:100440001AB88EE2E1E0F1E0DE01119601900D9222
:100450008A95E1F78E010F5F1F4F6801E12CF12CA7
:100460002EE2E216F104A9F0F60141916F01B70105
:10047000CE018F960E943C01FFE728E381E0F15016
:1004800020408040E1F700C000009FEFE91AF90A20
:10049000E7CFE12CF12CBB24B394EEE2EE16F1048D
:1004A00011F16801A801B701CE018F960E94770073
:1004B000A82E0F5F1F4FF6014081B701CE018F9626
:1004C0000E943C01A81203C0B092300102C01092F9
:1004D0003001A601B701CE018F960E947700FFEF91
:1004E000EF1AFF0ADACF80913001882311F081E002
:1004F00001C082E082B9CE018F960E945D0080E04B
:1005000090E0AF960FB6F894DEBF0FBECDBFDF917F
:10051000CF911F910F91FF90EF90DF90CF90BF9000
:08052000AF900895F894FFCF9D
:10052800A02A502A4F2A4C2A592A542A452A432AB3
:10053800482A4E2A492A512A552A452A202A4D2A2C
:100548004F2A4E2A542A522A452A412A4C00000092
:00000001FF
